:040000000CEF00F011
:10000800FACF03F0FBCF04F0E9CF05F084ED20F040
:1000180057EF22F0DF0E0101746F000E0101756FBA
:100028001EEF06F0250E01018919D8B406D001018A
:10003800895119EC28F01EEF06F0000E01017D6FC2
:10004800000E7C6F000E0101856F000E846F07D0D3
:10005800010184850001DD4BDE2B01D00BD0DDC012
:10006800F6FFDEC0F7FF0800F550300AD8B4F0D725
:1000780001D0F5D7DDC0F6FFDEC0F7FF0800F55068
:1000880070EC26F0D8A04DD0000E01017D6F000E57
:100098007C6F00D07CC111F07DC112F0000E146E8F
:1000A8000A0E136E24EC26F011C07CF112C07DF10B
:1000B800D00E0001EB6FFF0E0001EC6FDDC0F6FF04
:1000C800DEC0F7FF0800F5500001ED6FEE6B000190
:1000D800EB510001ED270001EC510001EE23000176
:1000E800ED5101017C270001EE5101017D23000142
:1000F800DD4BDE2BDDC0F6FFDEC0F7FF0800F55054
:1001080070EC26F0D8A00DD0C5D70BD02FEF06F095
:100118000101858524D00101848F21D01EEF06F0CE
:100128001ED0DDC0F6FFDEC0F7FF0001DD4BDE2B81
:100138000800F5CF89F101018951000AD8B42FEFE1
:1001480006F0640AD8B40BD0020AD8B4E1D70F0A73
:10015800D8B405D0110AD8B4DED71EEF06F0070EC2
:1001680001018515D8B49AD3000E0101776F060EE8
:10017800766F74C1D9FF75C1DAFFDECF86F1DECFA5
:1001880087F1DDCF88F1030E01017427000E752376
:10019800010188AF12D086C111F087C112F088C161
:1001A80013F05EEC26F011C086F112C087F113C07F
:1001B80088F1030E0101841300D0000E01017F6F46
:1001C800000E7E6F0101865101018711010188111E
:1001D800D8B493D0820E0001EB6FFF0E0001EC6FD4
:1001E80086C1EDF087C1EEF088C1EFF089C1F0F06B
:1001F800100E06D00001D890F033EF33EE33ED3314
:10020800E82EF8D70001ED510001EB2501017E6FC2
:10021800000E0001EC2101017F6F01017E07D8A0CB
:100228007F077EC111F07FC112F0000E146E030E1D
:10023800136E24EC26F011C07EF112C07FF17EC14E
:1002480017F07FC118F0000E1A6E0A0E196ED0EC66
:100258001EF017C07EF118C07FF101017FAF05D0F5
:1002680001017E07D8A07F0700D001017E51000858
:100278003AEC09F043C078F144C079F145C07AF10D
:1002880078C11FF079C120F07AC121F086C122F02F
:1002980087C123F088C124F0E7EC17F01FC078F17C
:1002A80020C079F121C07AF178C111F079C112F03A
:1002B8007AC113F0000E146E800E156E3F0E166E86
:1002C8001BEC1FF0D8B005D001017E07D8A07F072E
:1002D80014D078C111F079C112F07AC113F0000E70
:1002E800146E200E156E410E166E1BEC1FF0D8A072
:1002F80004D001017E4B7F2B00D0010177BF08D0CD
:10030800010177511EE10D0E0101765DD8B019D0BB
:1003180086C14DF087C14EF088C14FF0010176517A
:10032800EAEC0CF043C050F044C051F045C052F024
:100338000EEC0FF04DC086F14EC087F14FC088F12A
:1003480000D001017FBF08D001017F5128E10A0ECA
:1003580001017E5DD8B023D00101865101018711CA
:1003680001018811D8B477D086C12EF087C12FF04B
:1003780088C130F0C7EC19F02E502F103010311012
:10038800D8A469D001017FBF66D001017F5107E180
:10039800020E01017E5DD8B002D05DD000D078C1D8
:1003A80011F079C112F07AC113F0700E146E890E33
:1003B800156E400E166E1BEC1FF0D8B003D001016D
:1003C800F70E02D00101F80E7E27FF0E7F2300D022
:1003D80001017E513AEC09F043C078F144C079F14B
:1003E80045C07AF117D086C111F087C112F088C1D3
:1003F80013F078C114F079C115F07AC116F062ECE7
:1004080017F011C080F112C081F113C082F114C03D
:1004180083F117D086C111F087C112F088C113F09B
:1004280078C114F079C115F07AC116F054EC16F0C1
:1004380011C080F112C081F113C082F114C083F1A0
:1004480000D0000E0101866F000E0101876F000EBB
:100458000101886F34D086C12EF087C12FF088C182
:1004680030F0C7EC19F02EC080F12FC081F130C0F8
:1004780082F131C083F186C159F087C15AF088C131
:100488005BF080C119F081C11AF082C11BF083C1F1
:100498001CF0EAEC22F019C05CF01AC05DF01BC039
:1004A8005EF08CEC24F059C086F15AC087F15BC02D
:1004B80088F1000E01017F6F000E7E6F00D0010EE3
:1004C8000101896F0A0E01018919D8B422D001D01F
:1004D80020D001018951040D1E0EF324F66EFE0E84
:1004E800F420F76E0900F5500101805D0900F55010
:1004F800010181590900F550010182590900F5509F
:1005080001018359D8A005D001D003D00101892B5E
:10051800D9D789C1EBF00001EC6BEBBFEC07010107
:1005280076510001EB27010177510001EC2301010D
:100538007E510001EB2701017F510001EC230001EE
:10054800EB5101017C5F0001EC5101017D5B010170
:10055800765101017711D8B405D001017C07D8A0E4
:100568007D0700D0030E010184150001EB6F000E1A
:10057800010185150001EC6F0001EB510001EC1140
:10058800D8B405D001017C07D8A07D0700D00101AF
:1005980084A531D0030E010184150001EB6F000E14
:1005A800010185150001EC6F0001EB510001EC1110
:1005B800D8B40CD02D0E19EC28F008D0300E19EC58
:1005C80028F001017C07D8A07D0700D001017DBF7C
:1005D80077D001017D51F2E101017C05D8A070D0EE
:1005E800EDD76ED008D0200E19EC28F001017C0759
:1005F800D8A07D0700D001017DBF07D001017D5142
:10060800F2E101017C05D8B0EED7030E0101841593
:100618000001EB6F000E010185150001EC6F000170
:10062800EB510001EC11D8B44BD02D0E19EC28F089
:1006380047D080C111F081C112F082C113F083C18B
:1006480014F001018951040D1E0EF324F66EFE0EFE
:10065800F420F76E0900F5CF15F00900F5CF16F074
:100668000900F5CF17F00A00F5CF18F0FAEC1FF0E3
:1006780011C078F112C079F113C07AF114C07BF17E
:1006880078C11EF079C11FF07AC120F07BC121F03A
:100698000A0E226E000E236E000E246E000E256ECA
:1006A80081EC21F01EC078F11FC079F120C07AF1E9
:1006B80021C07BF101017851300F19EC28F000D0EE
:1006C8000101890701018929D8B40AD0B2D708D015
:1006D800300E19EC28F001017E07D8A07F0700D062
:1006E80001017FBF07D001017F51F2E101017E05C1
:1006F800D8B0EED7010177BF0CD00101775105E1E1
:10070800090E0101765DD8A004D0080E0101896F99
:1007180003D076C189F100D0010189510101765FCA
:10072800000E010189BFFF0E0101775B01018951AC
:100738000101D8B404D02E0E19EC28F000D0010124
:1007480089513AEC09F043C070F144C071F145C0D9
:1007580072F186C122F087C123F088C124F070C1EC
:100768001FF071C120F072C121F0E7EC17F01FC033
:100778002EF020C02FF021C030F0C7EC19F02EC0A9
:1007880080F12FC081F130C082F131C083F16ED089
:1007980080C111F081C112F082C113F083C114F03D
:1007A80001018951040D1E0EF324F66EFE0EF4208D
:1007B800F76E0900F5CF15F00900F5CF16F009001E
:1007C800F5CF17F00A00F5CF18F0FAEC1FF011C0BA
:1007D80078F112C079F113C07AF114C07BF178C1B5
:1007E8001EF079C11FF07AC120F07BC121F00A0EFA
:1007F800226E000E236E000E246E000E256E81EC14
:1008080021F01EC078F11FC079F120C07AF121C013
:100818007BF101017851300F19EC28F080C11EF0EE
:1008280081C11FF082C120F083C121F001018951EB
:10083800040D1E0EF324F66EFE0EF420F76E09006A
:10084800F5CF22F00900F5CF23F00900F5CF24F009
:100858000A00F5CF25F081EC21F01EC080F11FC001
:1008680081F120C082F121C083F100D00101890704
:1008780001018929D8B40AD08BD708D0300E19ECD9
:1008880028F001017607D8A0770700D0010176513A
:1008980001017711D8B4CED1F1D7CCD1010184BFF1
:1008A80023D074C1D9FF75C1DAFFDECF80F1DDCF67
:1008B80081F10101000E81BFFF0E826F836F020E6E
:1008C80001017427000E7523010183AF78D0030E50
:1008D800010184130101831F821F811F806D000E97
:1008E8008123822383236BD074C1D9FF75C1DAFFBA
:1008F800DECFEBF0DDCFECF0EBC080F1ECC081F1A6
:100908000101826B836B020E01017427000E7523AF
:1009180056D0010E0101896F0A0E01018919D8B458
:1009280058D001D056D001018951040D1E0EF32470
:10093800F66EFE0EF420F76E0900F5500101805D99
:100948000900F550010181590900F550010182594A
:100958000900F55001018359D8A03BD001D039D006
:100968000101892BD9D735D0010E0101896F080EF5
:1009780001018919D8B42DD001D02BD0010189519A
:10098800040D940EF324F66EFE0EF420F76E0900A3
:10099800F5500101805D0900F550010181590900F8
:1009A800F550010182590900F55001018359D8A079
:1009B80010D001D00ED00101892BD9D70AD001015E
:1009C8008451800B000AD8B4A4D7800AD8B4CCD7F5
:1009D80000D001017C5101017D11D8B415D0030E5E
:1009E800010184150001EB6F000E0101851500015E
:1009F800EC6F0001EB510001EC11D8B405D00101F6
:100A08007C07D8A07D0700D0800E010189BF7F0E2A
:100A18000001EB6F01017C510101895D01017D51EC
:100A2800800A0001EB59D8B00BD0010189510101AE
:100A38007C5F000E010189BFFF0E01017D5B06D0BE
:100A4800000E01017D6F000E7C6F00D0010184A5AE
:100A580029D0030E010184150001EB6F000E01017E
:100A680085150001EC6F0001EB510001EC11D8B4C1
:100A780004D02D0E19EC28F000D001017C510101A1
:100A88007D11D8B438D0300E19EC28F001017C075C
:100A9800D8A07D0701017C5101017D11D8B42BD06C
:100AA800F2D729D001017C5101017D11D8B40FD0B2
:100AB800200E19EC28F001017C07D8A07D07010160
:100AC8007C5101017D11D8B402D0F2D700D0030EB9
:100AD800010184150001EB6F000E0101851500016D
:100AE800EC6F0001EB510001EC11D8B404D02D0ECD
:100AF80019EC28F000D0010189510101766F776B5C
:100B080076BF77078AD07AD076C1EBF077C1ECF060
:100B18000001D890EB37EC370001D890EB37EC3771
:100B28001E0E0001EB25F66EFE0EEC21F76E090095
:100B3800F5CF15F00900F5CF16F00900F5CF17F03D
:100B48000A00F5CF18F080C111F081C112F082C1FE
:100B580013F083C114F0FAEC1FF011C01EF012C09C
:100B68001FF013C020F014C021F00A0E226E000EF0
:100B7800236E000E246E000E256E81EC21F01E50AF
:100B8800300F0101896F44D080C111F081C112F08A
:100B980082C113F083C114F076C1EBF077C1ECF099
:100BA8000001D890EB37EC370001D890EB37EC37E1
:100BB800940E0001EB25F66EFE0EEC21F76E09008F
:100BC800F5CF15F00900F5CF16F00900F5CF17F0AD
:100BD8000A00F5CF18F0FAEC1FF011500F0B0101C5
:100BE800736F01017351010D500EF324F66EFF0E61
:100BF800F420F76E0800F5CF89F10AD0010184517D
:100C0800800B000AD8B480D7800AD8B4BDD700D0EA
:100C18000101895119EC28F000D001017607D8A00C
:100C2800770701017629EAE101017729D8B402D0D2
:100C3800E5D700D0DDC0F6FFDEC0F7FF0001DD4BD1
:100C4800DE2B0800F5CF89F101018951D8B403D012
:100C580016EF00F000D01200000189AF1ED02D0E53
:100C68000001D36F7F0E00018915176E186A000EF8
:100C78001A6E0A0E196ED0EC1EF01750300F0001D4
:100C8800D46F7F0E000189153D6E3E6A000E406EDE
:100C98000A0E3F6E08EC21F01BD02B0E0001D36F1B
:100CA80089C017F08AC018F0000E1A6E0A0E196E65
:100CB800D0EC1EF01750300F0001D46F89C03DF002
:100CC8008AC03EF0000E406E0A0E3F6E08EC21F01E
:100CD8003D50300F0001D56F00D000018CAF28D0F7
:100CE8002D0E0001D76F8BC04AF08CC04BF04A1E06
:100CF8004B1E4A4A4B2A4AC04CF04BC04DF04CC0E0
:100D080017F04DC018F0000E1A6E0A0E196ED0ECCE
:100D18001EF01750300F0001D86F4CC03DF04DC089
:100D28003EF0000E406E0A0E3F6E08EC21F01BD01C
:100D38002B0E0001D76F8BC017F08CC018F0000E77
:100D48001A6E0A0E196ED0EC1EF01750300F000103
:100D5800D86F8BC03DF08CC03EF0000E406E0A0E7E
:100D68003F6E08EC21F03D50300F0001D96F00D0E4
:100D78006A380F0B300F0101616F6A500F0B300F8B
:100D88000101626F6B380F0B300F0101646F6B50FC
:100D98000F0B300F0101656F6D380F0B300F01011C
:100DA800676F6D500F0B300F0101686F6C380F0BB8
:100DB800300F01013D6F6C500F0B300F01013E6F7A
:100DC80067380F0B300F0101406F67500F0B300F62
:100DD8000101416F0001B4390F0B300F0101436F5E
:100DE8000001B4510F0B300F0101446F64380F0B31
:100DF800300F0101346F64500F0B300F0101356F54
:100E080065380F0B300F0101376F65500F0B300F2E
:100E18000101386F66380F0B300F01013A6F6650C9
:100E28000F0B300F01013B6F00018705000188118E
:100E3800D8A40BD0C70E116E000E126EE90E136EF9
:100E4800FF0E146EB4EC25F00BD0C70E116E000E19
:100E5800126EED0E136EFF0E146EB4EC25F000D07A
:100E6800B5C017F0186A000E1A6E640E196ED0EC31
:100E78001EF01750300F0001B86F000E1A6E0A0EE0
:100E8800196EB5C017F0186AD0EC1EF017C03DF007
:100E980018C03EF0000E406E0A0E3F6E08EC21F0BE
:100EA8003D50300F0001B96FB5C03DF03E6A000EED
:100EB800406E0A0E3F6E08EC21F03D50300F0001E5
:100EC800BA6F00019B05D8A40BD0CF0E116E000E8F
:100ED800126EE90E136EFF0E146EB4EC25F00BD0F3
:100EE800CF0E116E000E126EED0E136EFF0E146E05
:100EF800B4EC25F000D081BA02D0310E01D0300E0A
:100F08000001DB6F00D068C017F0186A000E1A6E77
:100F1800640E196ED0EC1EF01750300F0001CB6F25
:100F2800000E1A6E0A0E196E68C017F0186AD0EC17
:100F38001EF017C03DF018C03EF0000E406E0A0EBD
:100F48003F6E08EC21F03D50300F0001CC6F68C0B7
:100F58003DF03E6A000E406E0A0E3F6E08EC21F02E
:100F68003D50300F0001CD6F84C02EF085C02FF0AA
:100F780086C030F0C7EC19F02E50300F01016A6FAF
:100F8800000E226E200E236E410E246E84C01FF0C8
:100F980085C020F086C021F0E7EC17F01FC02EF0C6
:100FA80020C02FF021C030F0C7EC19F02EC03DF062
:100FB8002FC03EF0000E406E0A0E3F6E08EC21F086
:100FC8003D50300F01016C6F000E226EC80E236E6B
:100FD800420E246E84C01FF085C020F086C021F028
:100FE800E7EC17F01FC02EF020C02FF021C030F022
:100FF800C7EC19F02EC03DF02FC03EF0000E406E39
:101008000A0E3F6E08EC21F03D50300F01016D6F64
:1010180097C017F098C018F0030E1A6EE80E196EF4
:10102800D0EC1EF01750300F0001BD6F000E1A6E85
:10103800640E196E97C017F098C018F0D0EC1EF027
:1010480017C03DF018C03EF0000E406E0A0E3F6E0D
:1010580008EC21F03D50300F0001BE6F000E1A6EF3
:101068000A0E196E97C017F098C018F0D0EC1EF051
:1010780017C03DF018C03EF0000E406E0A0E3F6EDD
:1010880008EC21F03D50300F0001BF6F97C03DF0D4
:1010980098C03EF0000E406E0A0E3F6E08EC21F03C
:1010A8003D50300F0001C06F170E396ED30E3A6EE7
:1010B800000E3B6EFF0E3D6EE00E3C6E000E3F6E66
:1010C800000E3E6E020E406E010EABEC1AF0170ECB
:1010D800396ED70E3A6E000E3B6EFF0E3D6EE00E77
:1010E8003C6E000E3F6E000E3E6E020E406E460EC7
:1010F800ABEC1AF0340E396E610E3A6E010E3B6E8F
:10110800070E3D6E3C68000E3F6E000E3E6E020EEE
:10111800406E0F0EABEC1AF0520E396E3D0E3A6E61
:10112800010E3B6E070E3D6EE00E3C6E000E3F6EEC
:10113800000E3E6E020E406E0F0EABEC1AF06E0EF5
:10114800396E340E3A6E010E3B6E070E3D6E3C68EA
:10115800000E3F6E000E3E6E010E406E0A0EABECA6
:101168001AF06E0E396EC70E3A6E000E3B6E070E01
:101178003D6E3C68000E3F6E000E3E6E010E406EE6
:101188005F0EABEC1AF0820E396EB80E3A6E000E96
:101198003B6EF80E3D6E000E3C6E000E3F6E000E6C
:1011A8003E6E010E406E230EABEC1AF0820E396EC5
:1011B800CF0E3A6E000E3B6EF80E3D6E000E3C6E82
:1011C800000E3F6E000E3E6E010E406E5F0EABECE1
:1011D8001AF0960E396ECB0E3A6E000E3B6E070E65
:1011E8003D6EE00E3C6E000E3F6E000E3E6E010E30
:1011F800406E0A0EABEC1AF0960E396EDB0E3A6EA4
:10120800000E3B6E070E3D6EE00E3C6E000E3F6E0C
:10121800000E3E6E010E406E230EABEC1AF0960ED9
:10122800396E6A0E3A6E010E3B6E070E3D6EE00E89
:101238003C6E000E3F6E000E3E6E010E406E320E8A
:10124800ABEC1AF0960E396EBD0E3A6E000E3B6E80
:10125800070E3D6EE00E3C6E000E3F6E000E3E6EB9
:10126800010E406E5D0EABEC1AF01200496E49AEED
:10127800EFD0496C4950800A120FD8A08DD0000ECB
:10128800146E030E136E000E1A6E0A0E196E000EFF
:10129800406E640E3F6E49503D6E3E6A3DBE3E064E
:1012A80008EC21F03DC017F03EC018F0D0EC1EF05D
:1012B800090E1724116E000E1820126E24EC26F069
:1012C800460E1124F66EFE0E1220F76E0900F5CFB9
:1012D80022F00900F5CF23F00A00F5CF24F0000E24
:1012E8001A6E640E196E4950176E186A17BE1806E2
:1012F800D0EC1EF0120E1724116E000E1820126E7C
:10130800000E146E030E136E24EC26F0460E112404
:10131800F66EFE0E1220F76E0900F5CF1FF00900D9
:10132800F5CF20F00A00F5CF21F0E7EC17F01FC049
:1013380046F020C047F021C048F046C01FF047C023
:1013480020F048C021F0000E146E030E136E000E3C
:10135800406E0A0E3F6E49503D6E3E6A3DBE3E06E7
:1013680008EC21F03DC011F03EC012F024EC26F04C
:10137800460E1124F66EFE0E1220F76E0900F5CF08
:1013880022F00900F5CF23F00A00F5CF24F0E7ECAE
:1013980017F041D15AD154D04950800A750FD8A0BE
:1013A8004FD0000E1A6E0A0E196E4950176E186A41
:1013B80017BE1806D0EC1EF0090E1724116E000E89
:1013C8001820126E000E146E030E136E24EC26F015
:1013D800460E1124F66EFE0E1220F76E0900F5CFA8
:1013E8001FF00900F5CF20F00A00F5CF21F0000E1C
:1013F800146E030E136E000E406E0A0E3F6E4950B7
:101408003D6E3E6A3DBE3E0608EC21F03DC011F03F
:101418003EC012F024EC26F0460E1124F66EFE0EA5
:101428001220F76E0900F5CF22F00900F5CF23F05E
:101438000A00F5CF24F0E7EC17F0EDD006D100D084
:101448004950030D460EF324F66EFE0EF2D0FDD081
:101458004950800A120FD8A08DD0000E146E030ECA
:10146800136E000E1A6E0A0E196E000E406E640E90
:101478003F6E49503D6E3E6A3DBE3E0608EC21F087
:101488003DC017F03EC018F0D0EC1EF0090E17242E
:10149800116E000E1820126E24EC26F06D0E112429
:1014A800F66EFE0E1220F76E0900F5CF22F0090045
:1014B800F5CF23F00A00F5CF24F0000E1A6E640E63
:1014C800196E4950176E186A17BE1806D0EC1EF030
:1014D800120E1724116E000E1820126E000E146ED4
:1014E800030E136E24EC26F06D0E1124F66EFE0E1C
:1014F8001220F76E0900F5CF1FF00900F5CF20F094
:101508000A00F5CF21F0E7EC17F01FC046F020C025
:1015180047F021C048F046C01FF047C020F048C03F
:1015280021F0000E146E030E136E000E406E0A0EAC
:101538003F6E49503D6E3E6A3DBE3E0608EC21F0C6
:101548003DC011F03EC012F024EC26F06D0E1124BF
:10155800F66EFE0E1220F76E0900F5CF22F0090094
:10156800F5CF23F00A00F5CF24F0E7EC17F053D0BD
:101578006CD059D04950800A750FD8A054D0000EAD
:101588001A6E0A0E196E4950176E186A17BE180699
:10159800D0EC1EF0090E1724116E000E1820126EE2
:1015A800000E146E030E136E24EC26F06D0E11243B
:1015B800F66EFE0E1220F76E0900F5CF1FF0090037
:1015C800F5CF20F00A00F5CF21F0000E146E030EBF
:1015D800136E000E406E0A0E3F6E49503D6E3E6A15
:1015E8003DBE3E0608EC21F03DC011F03EC012F0B1
:1015F80024EC26F06D0E1124F66EFE0E1220F76E06
:101608000900F5CF22F00900F5CF23F00A00F5CF45
:1016180024F0E7EC17F01FC043F020C044F021C0CD
:1016280045F013D000D04950030D6D0EF324F66E2B
:10163800FE0EF420F76E0900F5CF43F00900F5CF50
:1016480044F00A00F5CF45F000D01200BBEC27F0BB
:10165800E5EC25F0000E256E000E246E10EC27F048
:1016680062C011F063C012F0FF0E136EFE0E146E0E
:10167800B4EC25F0010E396E62C03AF063C03BF05D
:10168800FF0E3D6E3C68000E3F6E000E3E6E010E72
:10169800406E010EABEC1AF062C011F063C012F09C
:1016A800700E136EFF0E146EB4EC25F00B0E396E2F
:1016B80062C03AF063C03BF0F80E3D6E1F0E3C6E00
:1016C800000E3F6E000E3E6E010E406E180EABEC23
:1016D8001AF0000E1D6E280E1C6E000E1F6E170EDF
:1016E8001E6E000E216E020E206EFF0E236EE00E9F
:1016F800226EA7EC11F062C011F063C012F0F50E73
:10170800136EFF0E146EB4EC25F0170E396E62C01E
:101718003AF063C03BF0FF0E3D6EE00E3C6E000EEB
:101728003F6E000E3E6E020E406E2D0EABEC1AF0B0
:1017380062C011F063C012F0EF0E136EFF0E146E4C
:10174800B4EC25F0000E1D6E6E0E1C6E000E1F6EA2
:10175800170E1E6E000E216E020E206EFF0E236EF7
:10176800E00E226EA7EC11F0170E396E62C03AF047
:1017780063C03BF0FF0E3D6EE00E3C6E000E3F6E08
:10178800000E3E6E020E406E730EABEC1AF062C095
:1017980011F063C012F0CA0E136EFF0E146EB4EC93
:1017A80025F0280E396E62C03AF063C03BF0000E97
:1017B8003D6E1F0E3C6E000E3F6E000E3E6E010E1B
:1017C800406E320EABEC1AF062C011F063C012F03A
:1017D800DF0E136EFF0E146EB4EC25F0470E396E53
:1017E80062C03AF063C03BF0F80E3D6E000E3C6EEE
:1017F800000E3F6E000E3E6E010E406E320EABECD8
:101808001AF062C011F063C012F0C40E136EFF0E1E
:10181800146EB4EC25F0640E396E62C03AF063C001
:101828003BF0FF0E3D6EE00E3C6E000E3F6E000E6C
:101838003E6E010E406E040EABEC1AF062C011F061
:1018480063C012F0CF0E136EFF0E146EB4EC25F0C9
:10185800640E396E62C03AF063C03BF0FF0E3D6E15
:10186800E00E3C6E000E3F6E000E3E6E010E406EA6
:101878004D0EABEC1AF062C011F063C012F07D0E91
:10188800136EFF0E146EB4EC25F0780E396E62C03C
:101898003AF063C03BF0000E3D6E1F0E3C6E000E2A
:1018A8003F6E000E3E6E010E406E060EABEC1AF057
:1018B80062C011F063C012F0D80E136EFF0E146EE2
:1018C800B4EC25F0780E396E62C03AF063C03BF094
:1018D800000E3D6E1F0E3C6E000E3F6E000E3E6EFB
:1018E800010E406E550EABEC1AF062C011F063C0E9
:1018F80012F0F80E136EFF0E146EB4EC25F08C0E79
:10190800396E62C03AF063C03BF0FF0E3D6E3C6832
:10191800000E3F6E000E3E6E010E406E0C0EABECDC
:101928001AF062C011F063C012F0FB0E136EFF0EC6
:10193800146EB4EC25F08C0E396E62C03AF063C0B8
:101948003BF0FF0E3D6E3C68000E3F6E000E3E6E93
:10195800010E406E210EABEC1AF062C011F063C0AC
:1019680012F0E40E136EFF0E146EB4EC25F08C0E1C
:10197800396E62C03AF063C03BF0FF0E3D6E3C68C2
:10198800000E3F6E000E3E6E010E406E320EABEC46
:101998001AF062C011F063C012F0F10E136EFF0E60
:1019A800146EB4EC25F08C0E396E62C03AF063C048
:1019B8003BF0FF0E3D6E3C68000E3F6E000E3E6E23
:1019C800010E406E5F0EABEC1AF012004C6E6D0EFD
:1019D8004C649BD0000E146E030E136E000E1A6E2C
:1019E8000A0E196E000E406E640E3F6E4CC03DF03C
:1019F8003E6A08EC21F03DC017F03EC018F0D0EC6C
:101A08001EF0090E1724116E000E1820126E24EC19
:101A180026F0460E1124F66EFE0E1220F76E09000F
:101A2800F5CF22F00900F5CF23F00A00F5CF24F016
:101A3800000E1A6E640E196E4CC017F0186AD0ECBE
:101A48001EF0120E1724116E000E1820126E000ED2
:101A5800146E030E136E24EC26F0460E1124F66E57
:101A6800FE0E1220F76E0900F5CF1FF00900F5CF22
:101A780020F00A00F5CF21F0E7EC17F01FC049F07D
:101A880020C04AF021C04BF0000E146E030E136EF6
:101A9800000E406E0A0E3F6E4CC03DF03E6A08ECE8
:101AA80021F03DC011F03EC012F024EC26F0460EA5
:101AB8001124F66EFE0E1220F76E0900F5CF22F003
:101AC8000900F5CF23F00A00F5CF24F049C01FF034
:101AD8004AC020F04BC021F0E7EC17F01FC046F0D9
:101AE80020C047F021C048F046C01FF047C020F092
:101AF80048C021F0000E226E000E236E3F0E246EA9
:101B0800E7EC17F07DD083D062D00A0E4C645FD02A
:101B1800000E146E030E136E000E406E0A0E3F6E1A
:101B28004CC03DF03E6A08EC21F03DC011F03EC0CB
:101B380012F024EC26F0460E1124F66EFE0E12204A
:101B4800F76E0900F5CF22F00900F5CF23F00A005F
:101B5800F5CF24F0000E1A6E0A0E196E4CC017F05D
:101B6800186AD0EC1EF0090E1724116E000E18200A
:101B7800126E000E146E030E136E24EC26F0460E41
:101B88001124F66EFE0E1220F76E0900F5CF1FF035
:101B98000900F5CF20F00A00F5CF21F0E7EC17F0A7
:101BA8001FC049F020C04AF021C04BF049C01FF0C7
:101BB8004AC020F04BC021F0000E226E000E236EAA
:101BC8003F0E246EE7EC17F01BD021D000D04C500C
:101BD800030D460EF324F66EFE0EF420F76E090090
:101BE800F5CF1FF00900F5CF20F00A00F5CF21F05E
:101BF800000E226E000E236E3F0E246EE7EC17F0E7
:101C08001FC043F020C044F021C045F000D01200AE
:101C18001AEC23F02AEC0BF0CAEC23F01CEC24F0AD
:101C2800000E0001886F000E876F0001B66900D0B2
:101C3800F1EC21F06D500001B619D8B4A0D06DC0F8
:101C4800B6F0AEEC24F01FC097F020C098F025EC59
:101C580022F03DC084F03EC085F03FC086F048ECDD
:101C680025F014C089F015C08AF089C011F08AC027
:101C780012F0000E146E090E136E24EC26F011C03B
:101C880017F012C018F0000E1A6E050E196ED0EC7F
:101C98001EF0200E172400018B6F000E1820000183
:101CA8008C6FB40E0001DD6FFE0E0001DE6F6AC09E
:101CB800DFF00001E06B6BC0E1F00001E26B6DC08A
:101CC800E3F00001E46B6CC0E5F00001E66B67C06F
:101CD800E7F00001E86BB4C0E9F00001EA6B0EEC34
:101CE80000F0140E0001DD6FFF0E0001DE6F89C0E9
:101CF800DFF08AC0E0F08BC0E1F08CC0E2F00EECBF
:101D080000F0D20E0001DD6FFE0E0001DE6F81AA29
:101D180004D00001F56BF52B02D00001F56B000132
:101D2800F5510001DF6FE06B8DC0E1F08EC0E2F08D
:101D38000EEC00F03D0E0001DD6FFF0E0001DE6FBE
:101D480097C0DFF098C0E0F068C0E1F00001E26BF6
:101D58000EEC00F0A20E0001DD6FFF0E0001DE6F39
:101D680084C0DFF085C0E0F086C0E1F00EEC00F042
:101D780066EC25F0DCEC18F030EC06F000D0B0ECA6
:101D88001FF0E806D8A42CD0000E0001966F000EB4
:101D9800956F17D051EC27F08AEC1BF021D051EC4D
:101DA80027F021EC1DF01CD051EC27F066EC1FF059
:101DB80017D051EC27F074EC27F012D05DEC27F027
:101DC8000FD06950000AD8B4E5D7010AD8B4E7D7CC
:101DD800030AD8B4E9D7070AD8B4EBD7EFD700D0AD
:101DE80000019D05D8A424D7000E00019D6F0001B5
:101DF800875100018811D8A405D0000E0001886F12
:101E0800010E04D0000E0001886F000E876F10D7F6
:101E18000CEF00F04FC053F0546A556A4E345336F5
:101E280001E354805350586E52C053F0546A556AB7
:101E38005134533601E354805350576E5850D8B438
:101E48000BD05750585CD8B00ED0585000085724C3
:101E5800536E180E536407D050C04DF051C04EF069
:101E680052C04FF0B8D05750D8B40BD05850575C28
:101E7800D8B00ED0575000085824536E180E53642B
:101E880007D04DC04DF04EC04EF04FC04FF0A3D01C
:101E9800060E566E4FAE02D0568E00D052BE568CED
:101EA8004E8EFF0E4D16FF0E4E16000E4F16518E1B
:101EB800FF0E5016FF0E5116000E52165750585C62
:101EC800D8B01ED0D8905036513652365706585092
:101ED8005718D8B40FD0560656C053F0070E5316ED
:101EE800D8B408D0EFD706D0D8904F324E324D3202
:101EF800582A00D057505818D8B424D0F5D722D033
:101F08005850575CD8B01ED0D8904D364E364F3604
:101F1800580658505718D8B40FD0560656C053F024
:101F2800070E5316D8B408D0EFD706D0D89052323F
:101F380051325032572A00D057505818D8B402D0CE
:101F4800F5D700D056AE0CD0FF0E4D1AFF0E4E1A24
:101F5800FF0E4F1A010E4D26000E4E22000E4F2284
:101F680056AC0DD0FF0E501AFF0E511AFF0E521A22
:101F7800010E5026000E5122000E522200D0000EF3
:101F8800566E4D5050264E5051224F50522252AE4E
:101F98000FD0FF0E501AFF0E511AFF0E521A010EE3
:101FA8005026000E5122000E5222010E566E00D00D
:101FB80050C011F051C012F052C013F058C014F0C4
:101FC80056C015F05EEC1CF011C04DF012C04EF07A
:101FD80013C04FF000D012002E6E240E306E1E0E6D
:101FE8002F6EC2D02F50440F236E190E246E020E8E
:101FF800256E000E276E000E266E3050020DF3502F
:102008000E0F43EC24F0440E236E190E246E020EBC
:10201800256E000E276E000E266E3050020DF3500E
:102028000E0F43EC24F0440E236E190E246E020E9C
:10203800256E070E276E26680E0E43EC24F0A8D0F6
:10204800440E236E190E246E020E256E000E276EA6
:10205800000E266E0E0E43EC24F0440E236E190E6D
:10206800246E020E256E070E276E266830500E0F5E
:1020780043EC24F08DD0440E236E190E246E020E0C
:10208800256E000E276E000E266E30500E0F43ECA4
:1020980024F0440E236E190E246E020E256E070ED0
:1020A800276E26683050020DF3500E0F43EC24F0D3
:1020B8006FD0440E236E190E246E020E256E000E8C
:1020C800276E000E266E3050020DF3500E0F43ECB3
:1020D80024F02F50440F236E190E246E020E256E25
:1020E800070E276E26680E0E43EC24F051D02F50B1
:1020F800440F236E190E246E020E256E000E276EF5
:10210800000E266E0E0E43EC24F02F50440F236E63
:10211800190E246E020E256E070E276E26683050A3
:102128000E0F43EC24F034D02F50440F236E190EB9
:10213800246E020E256E000E276E000E266E30509D
:102148000E0F43EC24F02F50440F236E190E246E0B
:10215800020E256E070E276E26683050020DF350CA
:102168000E0F43EC24F014D02E50000AD8B43AD7FE
:10217800010AD8B465D7030AD8B47DD7010AD8B400
:1021880098D7070AD8B4B3D7010AD8B4CDD700D0A6
:1021980012002E6E240E306E1E0E2F6EBFD0440E0F
:1021A800236E190E246E020E256E000E276E000E89
:1021B800266E30500E0F43EC24F0440E236E190E99
:1021C800246E020E256E070E276E26680E0E43EC4F
:1021D80024F0B8D0440E236E190E246E020E256E1C
:1021E800000E276E000E266E3050020DF3500E0FB3
:1021F80043EC24F0440E236E190E246E020E256E55
:10220800070E276E266830500E0F43EC24F09AD044
:10221800440E236E190E246E020E256E000E276ED4
:10222800000E266E0E0E43EC24F02F50440F236E42
:10223800190E246E020E256E000E276E000E266EF5
:102248000E0E43EC24F0440E236E190E246E020E7B
:10225800256E070E276E26683050020DF3500E0FBC
:1022680043EC24F06FD02F50440F236E190E246EC8
:10227800020E256E000E276E000E266E30500E0FD1
:1022880043EC24F02F50440F236E190E246E020ED7
:10229800256E070E276E26680E0E43EC24F052D0EA
:1022A8002F50440F236E190E246E020E256E000E59
:1022B800276E000E266E3050020DF3500E0F43ECC1
:1022C80024F02F50440F236E190E246E020E256E33
:1022D800070E276E266830500E0F43EC24F032D0DC
:1022E800440E236E190E246E020E256E000E276E04
:1022F800000E266E0E0E43EC24F02F50440F236E72
:10230800190E246E020E256E070E276E26683050B1
:10231800020DF3500E0F43EC24F014D02E50000A97
:10232800D8B43DD7010AD8B455D7030AD8B470D762
:10233800010AD8B498D7070AD8B4B2D7010AD8B4D2
:10234800CFD700D0120020C024F021C025F0241ED1
:10235800251E244A252A010E24242A6E000E252033
:102368002B6E000E276E010E266E20C024F021C0B1
:1023780025F0D89024362536241E251E244A252AE1
:1023880024C028F025C029F0000E2D6E000E2C6EFA
:1023980020C02EF021C02FF01E502024186E22C01D
:1023A80019F023C01AF01C50CDEC25F0205000087D
:1023B8001E24186E22C019F023C01AF01C50CDEC50
:1023C80025F01EC018F022C019F023C01AF01C50C6
:1023D8002024CDEC25F01EC018F022C019F023C02F
:1023E8001AF0205000081C24CDEC25F078D02BBE24
:1023F8000BD02E06D8A02F06020E2826000E292262
:1024080028502A2629502B222C4A2D2A020E26260D
:10241800000E272226502A2627502B221E502E2413
:10242800186E22C019F023C01AF01C502C24CDECD1
:1024380025F01E502E24186E22C019F023C01AF061
:102448002C5000081C24CDEC25F02E5000081E242A
:10245800186E22C019F023C01AF01C502C24CDECA1
:1024680025F02E5000081E24186E22C019F023C033
:102478001AF02C5000081C24CDEC25F01E502C24FA
:10248800186E22C019F023C01AF01C502E24CDEC6F
:1024980025F01E502C24186E22C019F023C01AF003
:1024A8002E5000081C24CDEC25F02C5000081E24CA
:1024B800186E22C019F023C01AF01C502E24CDEC3F
:1024C80025F02C5000081E24186E22C019F023C0D5
:1024D8001AF02E5000081C24CDEC25F000D02E5008
:1024E8002C5C2D50800A246E2F50800A2458D8A0C6
:1024F8007ED71200F2920001A251D8B4B4D0CE50C7
:10250800CFCF01F0026A01C002F0016A0110606ECB
:102518000250616E000ECF6E000ECE6EA4D0000E7B
:10252800CF6E000ECE6E9E90900ECD6ECD80000EBA
:102538000001A86F000E0001806F000E816F000E71
:10254800826F000E836F010E0001A26F8AD09DD0AA
:10255800350E605C210E6158D8A008D01C0E605C56
:10256800250E6158D8B002D0020E25D0000E23D017
:1025780025D08BD0A10E605C0F0E6158D8A008D072
:10258800880E605C130E6158D8B002D0030E66D076
:10259800000E64D066D079D0910E605C010E61584F
:1025A800D8A0E4D7BC0E605C020E6158D8B0DED764
:1025B800040E01D0DBD70001A26F00D0F19C65D0DA
:1025C800910E605C010E6158D8A0E2D7080E605CDD
:1025D800070E6158D8B0DCD7D890000180350001CB
:1025E800806F000181350001816F00018235000193
:1025F800826F000183350001836FE90E605C030E72
:102608006158D8A014D0010E000180250001806F08
:10261800000E000181210001816F000E000182215E
:102628000001826F000E000183210001836F000109
:10263800A8290001A86F1F0E0001A865A7D7000EE2
:102648000001966F010E956FF298000E0001A26FBF
:1026580081C0A1F006D09AD704D09AD70001A26F02
:1026680000D0F18C12D00001A251000AD8B457D77B
:10267800010AD8B46DD7030AD8B47CD7010AD8B4F4
:102688008BD7070AD8B49CD700D01200B0C017F077
:10269800186A000E1A6E0A0E196ED0EC1EF017504A
:1026A800300F0101586FB0C03DF03E6A000E406E19
:1026B8000A0E3F6E08EC21F03D50300F0101596FB2
:1026C800B1C017F0186A000E1A6E0A0E196ED0EC17
:1026D8001EF01750300F01015B6FB1C03DF03E6A2C
:1026E800000E406E0A0E3F6E08EC21F03D50300F90
:1026F80001015C6FB2C017F0186A000E1A6E0A0E5C
:10270800196ED0EC1EF01750300F01015E6FB2C089
:102718003DF03E6A000E406E0A0E3F6E08EC21F056
:102728003D50300F01015F6F6FC017F0186A000E3F
:102738001A6E0A0E196ED0EC1EF01750300F0101F8
:102748004F6F6FC03DF03E6A000E406E0A0E3F6E3E
:1027580008EC21F03D50300F0101506F6EC017F0AA
:10276800186A000E1A6E0A0E196ED0EC1EF0175079
:10277800300F0101526F6EC03DF03E6A000E406E90
:102788000A0E3F6E08EC21F03D50300F0101536FE7
:10279800B3C017F0186A000E1A6E0A0E196ED0EC44
:1027A8001EF01750300F0101556FB3C03DF03E6A5F
:1027B800000E406E0A0E3F6E08EC21F03D50300FBF
:1027C8000101566F340E396E580E3A6E010E3B6E8B
:1027D800070E3D6E3C68000E3F6E000E3E6E020E08
:1027E800406E0F0EABEC1AF0520E396E4F0E3A6E69
:1027F800010E3B6E070E3D6EE00E3C6E000E3F6E06
:10280800000E3E6E020E406E0F0EABEC1AF0120078
:10281800366E800E3660A6D09F0E2E6401D0A2D0F0
:102828003450D8A403D0010E346E00D01F0E2F648C
:1028380004D07E0E2F6403D000D03F0E2F6E000E02
:10284800386E040E386401D08DD0530E2F6015D029
:10285800E00E2F24116E126AFF0E1222000E146E63
:10286800050E136E24EC26F038501126000E1222A5
:10287800430E1124F66EFC0E14D0AD0E2F24116EEB
:10288800126AFF0E1222000E146E050E136E24EC4F
:1028980026F038501126000E1222420E1124F66E30
:1028A800FD0E1220F76E0800F5CF35F000D0000EAF
:1028B800376E060E376401D053D035A023D03404C8
:1028C800D8A40CD02E503724186E30C019F031C05F
:1028D8001AF036503824CDEC25F03ED0375034026B
:1028E800F3502E24236E34C024F034C025F030C0B9
:1028F80026F031C027F038503402F350362443EC28
:1029080024F02AD03050321804E131503318D8B4AA
:1029180023D03404D8A40CD02E503724186E32C0DB
:1029280019F033C01AF036503824CDEC25F014D005
:1029380037503402F3502E24236E34C024F034C0B0
:1029480025F032C026F033C027F038503402F35057
:10295800362443EC24F000D0372AD8903532A9D752
:10296800382A6FD7120074D00001B051D8A404D00F
:10297800170E0001B06F81D00001B0077ED00001B2
:10298800B151D8A404D03B0E0001B16F76D000013C
:10299800B10773D00001B251D8A404D03B0E000196
:1029A800B26F6BD00001B20768D06F04D8A403D00F
:1029B8000C0E6F6E62D06F0660D06E0617D000D016
:1029C8006E50D8A45AD01F0E0FD057D06E50D8A42E
:1029D80054D01C0E09D051D000D06E50D8A44DD080
:1029E8001E0E02D04AD0000E6E6E47D06F50010AFC
:1029F800D8B4E6D7030AD8B4E9D7010AD8B4E0D7DF
:102A0800070AD8B4EAD7010AD8B4DAD7030AD8B47F
:102A1800E4D7010AD8B4D4D70F0AD8B4D1D7010A59
:102A2800D8B4DBD7030AD8B4CBD7010AD8B4D5D7E2
:102A3800070AD8B4C5D7D7D720D00001B351D8A436
:102A480004D0630E0001B36F18D00001B30715D08E
:102A58000001A551000AD8B487D7010AD8B48FD786
:102A6800030AD8B497D7010AD8B49FD7070AD8B4AD
:102A7800A4D7010AD8B4E1D700D04AEC13F0120069
:102A88006FD00001B02B180E0001B019D8A47DD06A
:102A9800000E0001B06F79D00001B12B3C0E00018F
:102AA800B119D8A472D0000E0001B16F6ED0000128
:102AB800B22B3C0E0001B219D8A467D0000E000159
:102AC800B26F63D06F2A0D0E6F18D8A45ED0010EB6
:102AD8006F6E5BD06E2A12D000D0200E06D055D073
:102AE8001D0E03D052D000D01F0E6E18D8A44DD0A2
:102AF800010E02D04AD0000E6E6E47D06F50010A08
:102B0800D8B4EBD7030AD8B4EBD7010AD8B4E5D7C1
:102B1800070AD8B4E9D7010AD8B4DFD7030AD8B46A
:102B2800E3D7010AD8B4D9D70F0AD8B4D6D7010A3F
:102B3800D8B4DAD7030AD8B4D0D7010AD8B4D4D7CE
:102B4800070AD8B4CAD7D7D720D00001B32B640E50
:102B58000001B319D8A419D0000E0001B36F15D025
:102B68000001A551000AD8B48CD7010AD8B494D76B
:102B7800030AD8B49CD7010AD8B4A4D7070AD8B492
:102B8800A9D7010AD8B4E1D700D04AEC13F0120053
:102B9800010E11EC28F0000E186E960E176EF3EC6D
:102BA80023F0110E11EC28F0010E186EF40E176EBA
:102BB800F3EC23F0B10E11EC28F0010E09EC28F02B
:102BC8002C0E09EC28F02D0E09EC28F0B20E11ECB1
:102BD80028F0010E09EC28F02C0E09EC28F02D0E37
:102BE80009EC28F0B30E11EC28F0010E09EC28F0DE
:102BF8002C0E09EC28F02D0E09EC28F0010E09EC3A
:102C080028F02C0E09EC28F02D0E09EC28F0B40E53
:102C180011EC28F0070E09EC28F0C00E11EC28F092
:102C2800A20E09EC28F0020E09EC28F0840E09EC3B
:102C380028F0C10E11EC28F0C50E09EC28F0C20EE0
:102C480011EC28F00A0E09EC28F0000E09EC28F027
:102C5800C30E11EC28F08A0E09EC28F02A0E09ECB4
:102C680028F0C40E11EC28F08A0E09EC28F0EE0EBC
:102C780009EC28F0C50E11EC28F00E0E09EC28F02E
:102C8800200E11EC28F0360E11EC28F0C80E09ECD5
:102C980028F03A0E11EC28F0050E09EC28F0120085
:102CA80013C017F0186A196A1234173601E318802E
:102CB80017501F6E1F50D8A402D05DD078D016C010
:102CC80017F0186A196A1534173601E31880175077
:102CD8001E6E1E50D8A402D04ED069D0128EFF0EA0
:102CE8001116FF0E1216000E1316158EFF0E14166F
:102CF800FF0E1516000E1616000E1A6E000E1B6E2D
:102D0800000E1C6E000E1D6E7F0E1F5E1E50980F6B
:102D18001F5E180E1E6ED8901A361B361C361D36CE
:102D28001450115C1550125816501358D8A007D0DB
:102D38001450115E1550125A1650135A1A80D89012
:102D48001136123613361E2EE6D700D01FAE10D01D
:102D58001F50800A970FD8B003D00DD028D000D0CC
:102D6800D8901D321C321B321A321F3EF9D717D0A9
:102D7800170E1F6411D0000E116E000E126E000E99
:102D8800136E000E146E13D007D0D8901A361B3667
:102D98001C361D361F0600D01F50D8A4F6D71AC0FF
:102DA80011F01BC012F01CC013F01DC014F012006B
:102DB800000E256E000E246E10EC27F062C011F094
:102DC80063C012F0FF0E136EFE0E146EB4EC25F005
:102DD800010E396E62C03AF063C03BF0FF0E3D6EE3
:102DE8003C68000E3F6E000E3E6E010E406E010EF6
:102DF800ABEC1AF062C011F063C012F08A0E136EC9
:102E0800FF0E146EB4EC25F0100E396E62C03AF065
:102E180063C03BF0F80E3D6E1F0E3C6E000E3F6E19
:102E2800000E3E6E020E406E040EABEC1AF062C04D
:102E380011F063C012F0CA0E136EFF0E146EB4ECDC
:102E480025F0280E396E62C03AF063C03BF0000EE0
:102E58003D6E1F0E3C6E000E3F6E000E3E6E010E64
:102E6800406E320EABEC1AF0440E236E190E246E2F
:102E7800020E256E070E276E26680E0E43EC24F010
:102E880062C011F063C012F0DF0E136EFF0E146EF5
:102E9800B4EC25F0470E396E62C03AF063C03BF0DF
:102EA800F80E3D6E000E3C6E000E3F6E000E3E6E3C
:102EB800010E406E320EABEC1AF0120013341434CB
:102EC8001C6E1C50D8A402D061D07CD016341734A4
:102ED8001B6E1B50D8A402D059D074D0138EFF0E8D
:102EE8001116FF0E1216FF0E1316000E1416168E6C
:102EF800FF0E1416FF0E1516FF0E1616000E1716E7
:102F0800000E176E000E186E000E196E000E1A6E67
:102F18007F0E1C5E1B50A00F1C5E200E1B6E00D087
:102F2800D8901736183619361A361450115C1550C1
:102F380012581650135817501458D8A00AD01450C5
:102F4800115E1550125A1650135A1750145A1780FA
:102F580000D0D89011361236133614361B2EE0D70F
:102F680000D01CAE10D01C50800A9F0FD8B003D0E0
:102F78000DD028D000D0D8901A3219321832173212
:102F88001C3EF9D717D01F0E1C6411D0000E116E0D
:102F9800000E126E000E136E000E146E13D007D0C2
:102FA800D8901736183619361A361C0600D01C5019
:102FB800D8A4F6D717C011F018C012F019C013F032
:102FC8001AC014F0120021C025F0266A276A20349E
:102FD800253601E326802550286E2850D8A402D033
:102FE8000ED06CD024C025F0266A276A23342536F3
:102FF80001E3268025502D6E2D50D8A407D0000E51
:103008001F6E000E206E000E216E58D02D507B0FC3
:10301800282621C02DF024502D1A800E2D16208E22
:10302800238EFF0E2216FF0E2316000E2416000E06
:10303800296E000E2A6E000E2B6E070E2C6E00D025
:103048001FA007D02250292623502A2224502B22A1
:1030580000D0D890213220321F32D8902236233621
:1030680024362C2EEDD700D0090E2C6E00D01FA0D0
:1030780007D02250292623502A2224502B2200D060
:10308800D890213220321F32D8902B322A3229325E
:103098002C2EEDD700D029C011F02AC012F02BC079
:1030A80013F028C014F02DC015F05EEC1CF011C010
:1030B8001FF012C020F013C021F000D01200E00E63
:1030C80011EC28F0020E09EC28F01C0E09EC28F08F
:1030D800070E09EC28F0120E09EC28F0370E09EC5F
:1030E80028F0320E09EC28F0290E09EC28F02D0EF4
:1030F80009EC28F0290E09EC28F0250E09EC28F037
:103108002B0E09EC28F0390E09EC28F0000E09EC1A
:1031180028F0010E09EC28F0030E09EC28F0100E37
:1031280009EC28F0E10E11EC28F0030E09EC28F068
:103138001D0E09EC28F0070E09EC28F0060E09EC24
:1031480028F02E0E09EC28F02C0E09EC28F0290E98
:1031580009EC28F02D0E09EC28F02E0E09EC28F0C9
:103168002E0E09EC28F0370E09EC28F03F0E09EC7A
:1031780028F0000E09EC28F0000E09EC28F0020EE9
:1031880009EC28F0100E09EC28F0130E11EC28F0C9
:10319800000E186E0A0E176EF3EC23F0290E11ECD0
:1031A80028F0000E186E640E176EF3EC23F0120070
:1031B80000018F5100019011D8A411D0000187059A
:1031C80000018811D8A408D0A1EC23F0000E00015A
:1031D800906F010E8F6F03D0CAEC23F000D000016E
:1031E8008D0500018E11D8A423D0000E116E400E5B
:1031F800126E400E136E84C014F085C015F086C0A0
:1032080016F01BEC1FF0D8B013D0000E00018E6F23
:10321800000E8D6F000E0001926F000E916F00017D
:10322800915169EC27F04EEC28F0CAEC23F000D05D
:1032380000018F0500019011D8A42FD00001870547
:1032480000018811D8A411D081BA27D0000191516A
:1032580069EC27F00001914B922BB2EC27F0000E9D
:1032680000018E6F010E17D018D0CAEC23F0000EA3
:103278000001906F000E8F6F000E0001926F000E1C
:10328800916F0001915169EC27F04EEC28F0000E87
:1032980000018E6F000E8D6F00D01200AE0E00017F
:1032A800DD6FFF0E0001DE6FACC0DFF00001E06BE8
:1032B800ADC0E1F00001E26BAEC0E3F00001E46BE9
:1032C8000EEC00F0ACC017F0186A000E1A6E0A0E69
:1032D800196ED0EC1EF01750300F0101466FACC0CC
:1032E8003DF03E6A000E406E0A0E3F6E08EC21F07B
:1032F8003D50300F0101476FADC017F0186A000E3E
:103308001A6E0A0E196ED0EC1EF01750300F01011C
:10331800496FADC03DF03E6A000E406E0A0E3F6E2A
:1033280008EC21F03D50300F01014A6FAEC017F094
:10333800186A000E1A6E0A0E196ED0EC1EF017509D
:10334800300F01014C6FAEC03DF03E6A000E406E7A
:103358000A0E3F6E08EC21F03D50300F01014D6F11
:10336800340E396E460E3A6E010E3B6E070E3D6EF8
:103378003C68000E3F6E000E3E6E020E406E0F0E51
:10338800ABEC1AF0120030C032F0336A346A2F34D2
:10339800323601E3338032503C6E3C50D8A402D020
:1033A80039D063D0170E326E2EC033F02FC034F0F0
:1033B80030C035F03228366E04D0D89035323432E9
:1033C8003332362EFAD73350376E2F8EFF0E2E1625
:1033D800FF0E2F16000E30162E50386E2F50396EF5
:1033E80030503A6E3B6A8E0E3C5E3CAE10D03C507C
:1033F800800A8F0FD8B003D00DD037D000D0D89026
:103408003B323A32393238323C3EF9D719D0170EAE
:103418003C6411D0000E2E6E000E2F6E000E306E22
:10342800000E316E22D007D0D890383639363A3669
:103438003B363C0600D03C50D8B402D0F5D700D07B
:103448003750D8B409D03B1E3A1E391E386C000ECE
:1034580039223A223B2200D038C02EF039C02FF052
:103468003AC030F03BC031F000D0120030C034F028
:10347800356A366A2F34343601E3358034503B6E72
:103488003B50D8A402D00ED061D033C034F0356A96
:10349800366A3234343601E3358034503C6E3C5061
:1034A800D8A407D0000E2E6E000E2F6E000E306EC0
:1034B8004DD0000E386E000E396E000E3A6E3C503C
:1034C800890F3B5E30C03CF033503C1A800E3C16EE
:1034D8002F8EFF0E2E16FF0E2F16000E3016328E70
:1034E800FF0E3116FF0E3216000E3316180E376E09
:1034F80000D0D890383639363A3631502E5C3250B2
:103508002F5833503058D8A007D031502E5E325043
:103518002F5A3350305A3880D8902E362F363036BE
:10352800372EE7D700D038C011F039C012F03AC0B2
:1035380013F03BC014F03CC015F05EEC1CF011C059
:103548002EF012C02FF013C030F000D01200436EDE
:1035580043C049F039C048F03AC011F03BC012F0FE
:10356800ECEC24F011C044F012C045F0000E476E98
:10357800000E466E56D00001B7510001D8B42CD0C9
:103588004050050D4950416E426AF3504126F450AF
:10359800422242BE21D0425004E1810E415CD8A0B3
:1035A8001BD0000E496E4050070DF3504824030FFE
:1035B800486EA00E486403D0A00E486E00D0465056
:1035C8003A24D96E47503B20DA6E200EDE18D8B464
:1035D80025D002D023D000D048C02EF046503A243F
:1035E800D96E47503B20DA6EDF502F6E3CC030F06A
:1035F8003DC031F03EC032F03FC033F040C034F03F
:1036080049500CEC14F04050060DF3504924496E13
:10361800800E496403D0800E496E00D0464A472A7E
:1036280000D04450465C45504758D8A0A4D7120053
:10363800236E800E236069D09F0E186401D065D078
:10364800FF0E1D6EFF0E1E6E195023C01FF0206A5C
:103658001F26000E20221D501F261E50202220BE8D
:103668000AD0205004E1800E1F5CD8A004D023505B
:103678000008800F196EFF0E1D6EFF0E1E6E1A5089
:1036880018C01FF0206A1F26000E20221D501F267A
:103698001E50202220BE0BD0205004E1A00E1F5C3B
:1036A800D8A005D018500008A00F1A6E00D018C076
:1036B80014F0235019241D6E1D04156E18501A2479
:1036C8001E6E1E04166E235076EC23F01C50216EDD
:1036D8001BC022F0838683981AC018F01850D8B4FB
:1036E80013D001D011D019C023F02350D8B40AD078
:1036F80001D008D021509EEC27F022509EEC27F0F4
:103708002306F3D71806EAD783881200000E0001B3
:10371800A56FF1EC21F06D50FBEC25F00001B26FC4
:103728006B50FBEC25F00001B16F6A50FBEC25F003
:103738000001B06F6750FBEC25F06E6E6C50FBEC2F
:1037480025F06F6E0001B451FBEC25F00001B36F5A
:10375800DCEC16F04AEC13F0010E0001A06F3CD02F
:10376800B0EC1FF0E806D8A437D0020E696431D057
:10377800090E69602ED051EC27F0030E6918D8A401
:1037880003D091EC26F000D0040E6918D8A403D019
:10379800A1EC26F000D0050E6918D8A403D094EC4B
:1037A80027F000D0060E6918D8A403D0B7EC14F09F
:1037B80000D0070E6918D8A403D044EC15F000D047
:1037C800080E6918D8A403D0F9EC27F000D069686E
:1037D80003D05DEC27F000D00001A005D8B4C0D715
:1037E8001200000E256E000E246E10EC27F062C049
:1037F80011F063C012F0290E136EFF0E146EB4ECB4
:1038080025F0010E396E62C03AF063C03BF0FF0E3E
:103818003D6E3C68000E3F6E000E3E6E010E406E1F
:10382800010EABEC1AF062C011F063C012F0B90ED1
:10383800136EFF0E146EB4EC25F0150E396E62C0CF
:103848003AF063C03BF0F80E3D6E1F0E3C6E000E62
:103858003F6E000E3E6E020E406E060EABEC1AF086
:1038680062C011F063C012F0CA0E136EFF0E146E20
:10387800B4EC25F0280E396E62C03AF063C03BF014
:10388800000E3D6E1F0E3C6E000E3F6E000E3E6E2B
:10389800010E406E320EABEC1AF0440E236E190E78
:1038A800246E020E256E070E276E26680E0E43EC58
:1038B80024F012001450D8B405D01150121013106F
:1038C800D8A40ED0000E116E000E126E000E136EEC
:1038D80053D006D0142AD89013321232113200D0A5
:1038E800000E1114166E000E1214176EFE0E13142D
:1038F800186E165017101810D8B40ED0EBD70CD07D
:10390800142A010E1126000E1222000E1322D8903E
:1039180013321232113200D0000E1114166E000E3E
:103928001214176EFF0E1314186E16501710181075
:10393800D8B408D0E5D706D01406D8901136123678
:10394800133600D012BE04D0020E1460F5D700D092
:1039580014B002D0129E00D0D89014321450131212
:103968001550D8B402D0138E00D011C011F012C077
:1039780012F013C013F000D01200680E1A6E070E72
:10398800176E0E0E186E18C014F01A5082EC25F03F
:10399800196E1950010B196E19502509196E18C0A6
:1039A80013F019C014F01A5081EC26F0DFEC27F060
:1039B8001A501A240BEC25F017500BEC25F07FEC6D
:1039C80027F0D8801A340BEC25F0010E68EC24F0AF
:1039D800666E010E68EC24F0656E010E68EC24F04A
:1039E800646E000E68EC24F00001A76F66507F0B30
:1039F800666E65507F0B656E64507F0B646E0001C8
:103A0800A75180090001A76FDFEC27F01A501A248C
:103A18000BEC25F017500BEC25F066500BEC25F05D
:103A280065500BEC25F064500BEC25F00001A75114
:103A38000BEC25F0D6EC27F01200000E0001A36F66
:103A4800010E00019E6F1CEC24F06650FBEC25F083
:103A5800666E6550FBEC25F0656E6450FBEC25F056
:103A6800646E66C0AEF065C0ADF064C0ACF0F5EC55
:103A78001BF052EC19F03CD0B0EC1FF0E806D8A4CB
:103A880037D0020E696431D0090E69602ED051EC2E
:103A980027F0030E6918D8A403D0B1EC26F000D0A3
:103AA800040E6918D8A403D0C1EC26F000D0050E86
:103AB8006918D8A403D045EC27F000D0060E691881
:103AC800D8A403D0B9EC22F000D0070E6918D8A406
:103AD80003D088EC22F000D0080E6918D8A403D0CF
:103AE80001EC28F000D0696803D05DEC27F000D025
:103AF80000019E05D8B4C0D71200000E256E000E36
:103B0800246E10EC27F062C011F063C012F0FF0EB3
:103B1800136EFE0E146EB4EC25F0010E396E62C001
:103B28003AF063C03BF0FF0E3D6E3C68000E3F6EFE
:103B3800000E3E6E010E406E010EABEC1AF062C034
:103B480011F063C012F0960E136EFF0E146EB4ECF3
:103B580025F01A0E396E62C03AF063C03BF0FF0ED2
:103B68003D6EE00E3C6E000E3F6E000E3E6E020E85
:103B7800406E010EABEC1AF062C011F063C012F097
:103B8800610E136EFF0E146EB4EC25F03C0E396E08
:103B980062C03AF063C03BF0070E3D6E3C68000E11
:103BA8003F6E000E3E6E010E406E0F0EABEC1AF02B
:103BB8001200436E040ECB6E070ECA6E000E226E04
:103BC800800E236E400E246E43504BEC26F019C035
:103BD8001FF01AC020F01BC021F0E7EC17F01FC03F
:103BE8002EF020C02FF021C030F0000E316EA00E54
:103BF800326E410E336E3AEC1AF02EC040F02FC0F0
:103C080041F030C042F040C02EF041C02FF042C019
:103C180030F0C7EC19F02EC044F02FC045F04350E7
:103C28003D6E3E6A44503D5C3E50800A3F6E4550B2
:103C3800800A3F58D8B003D0444A452A00D044C02F
:103C48003DF0030E3D163D38F00B0C09BD6E44C027
:103C58003DF045C03EF03E343E323D323E343E32C9
:103C68003D323D50BE6E1200680E4A6E000E4B6E1D
:103C78000001B2514AEC23F043506D6E0001B1517E
:103C88004AEC23F043506B6E0001B0514AEC23F02C
:103C980043506A6E010E0001AA6F6E504AEC23F081
:103CA8004350676E6F504AEC23F043506C6E00012E
:103CB800B3514AEC23F043500001B46FDFEC27F016
:103CC8004A504A240BEC25F04B500BEC25F06D5074
:103CD8000BEC25F06B500BEC25F06A500BEC25F043
:103CE8000001AA510BEC25F067500BEC25F06C5045
:103CF8000BEC25F00001B4510BEC25F0D6EC27F0C5
:103D08001200AFC017F0186A000E1A6E640E196E12
:103D1800D0EC1EF017504A6E000E1A6E0A0E196E7D
:103D2800AFC017F0186AD0EC1EF017C03DF018C0ED
:103D38003EF0000E406E0A0E3F6E08EC21F03D503A
:103D48004B6EAFC03DF03E6A000E406E0A0E3F6EED
:103D580008EC21F03D504C6E4A50300F0001C26F04
:103D68004B50300F0001C36F4C50300F0001C46F2F
:103D78004A0E396EC20E3A6E000E3B6EF80E3D6E5C
:103D8800000E3C6E000E3F6E000E3E6E020E406E40
:103D9800280EABEC1AF01200000E1C6E1AAE07D0FB
:103DA800196C1A1ED8B01A2A010E1C6E00D018AE53
:103DB80007D0176C181ED8B0182A010E1C1A00D08C
:103DC800000E1E6E000E1D6E19501A10D8B421D0A8
:103DD800010E1B6E05D0D89019361A361B2A00D052
:103DE8001ABE02D0F8D700D0D8901D361E3619500A
:103DF800175C1A501858D8A006D01950175E1A50D8
:103E0800185A1D8000D0D8901A3219321B2EECD7C0
:103E180000D01C50D8B405D01D6C1E1ED8B01E2A68
:103E280000D01DC017F01EC018F000D0120013AE4D
:103E380017D011C017F012C018F013C019F0171ED0
:103E4800181E191E172A000E18221922000E1724F0
:103E5800116E000E1820126E800E1920136E00D0FD
:103E680016AE17D014C017F015C018F016C019F008
:103E7800171E181E191E172A000E18221922000EC6
:103E88001724146E000E1820156E800E1920166E59
:103E980000D0000E111A000E121A800E131A000E0E
:103EA800141A000E151A800E161A1450115C1550AB
:103EB800125816501358D8B002D0D89002D0D880D3
:103EC80000D01200010E00019F6FB5C0AFF081EC69
:103ED8001DF085EC1EF03BD0010E0001F36F000EC3
:103EE8000001F46FB0EC1FF00001F319F411D8A42D
:103EF8002ED0000E0001966F000E956F040E6964B7
:103F080023D0090E696020D051EC27F0050E6918FE
:103F1800D8A403D08AEC27F000D0060E6918D8A4DC
:103F280003D02BEC27F000D0070E6918D8A403D0D3
:103F38001EEC27F000D0080E6918D8A403D0F1ECC5
:103F480027F000D0696803D05DEC27F000D00001AD
:103F58009F05D8B4C1D7120000019505000196113C
:103F6800D8A443D0000E0001966F000E956FF2881A
:103F7800F19C6968000E0001F26F000EF16F0001FC
:103F8800F2BF0AD00001F25121E1150E0001F15DE6
:103F9800D8B01CD001D01AD01F0E0001F125D96E5F
:103FA800010E0001F221DA6E0001A151DE18D8A439
:103FB80008D0F1C069F0000E0001F26F150EF16F24
:103FC80000D00001F14BF22BDAD700D06928D8A431
:103FD8000AD0E90E0001DD6FFE0E0001DE6F0EEC67
:103FE80000F0000E02D0010E00D01200000E196E73
:103FF800000E1A6E000E1B6E000E1C6E1550161069
:1040080017101810D8B42FD0010E1D6E07D0D890F5
:1040180015361636173618361D2A00D018BE02D0A7
:10402800F6D700D0D89019361A361B361C361550DC
:10403800115C165012581750135818501458D8A01D
:104048000AD01550115E1650125A1750135A1850AC
:10405800145A198000D0D8901832173216321532F7
:104068001D2EE0D700D019C011F01AC012F01BC0E5
:1040780013F01CC014F01200226E800E22603FD094
:104088009F0E186401D03BD0FF0E1C6EFF0E1D6EF4
:10409800195018C01EF01F6A1E26000E1F221C5041
:1040A8001E261D501F221FBE0BD01F5004E1A00E5C
:1040B8001E5CD8A005D018500008A00F196E00D0BB
:1040C8001B50206E1AC021F018C014F022C015F041
:1040D800185019241C6E1C04166E225076EC23F01E
:1040E8008386839807D020509EEC27F021509EECC1
:1040F80027F000D019061928D8A4F5D7838812000C
:104108000600EACF06F0E1CF07F0E2CF08F0D9CFFA
:1041180009F0DACF0AF0F3CF0BF0F4CF0CF0F6CFBA
:104128000DF0F7CF0EF0F8CF0FF0F5CF10F09EA0FE
:1041380003D027EC28F000D0F2A203D07EEC12F0D6
:1041480000D0F0A203D049EC28F000D010C0F5FF51
:104158000FC0F8FF0EC0F7FF0DC0F6FF0CC0F4FF4C
:104168000BC0F3FF0AC0DAFF09C0D9FF08C0E2FF9D
:1041780007C0E1FF06C0EAFF05C0E9FF04C0FBFF76
:1041880003C0FAFF1100F1EC21F067C0A7F0680E38
:104198004A6E070E4B6E0001AC514AEC23F04350B7
:1041A800646E0001AD514AEC23F04350656E000186
:1041B800AE514AEC23F04350666E66507F0B666E34
:1041C80065507F0B656E64507F0B646E0001A751CC
:1041D80080090001A76FDFEC27F04A504A240BEC56
:1041E80025F04B500BEC25F066500BEC25F0655094
:1041F8000BEC25F064500BEC25F00001A7510BECFB
:1042080025F0D6EC27F01200000E426E3EAE07D025
:104218003D6C3E1ED8B03E2A010E426E00D040AE24
:1042280005D03F6C401ED8B0402A00D03F50401007
:10423800D8B41DD0010E416E05D0D8903F36403617
:10424800412A00D040BE02D0F8D700D03F503D5C94
:1042580040503E58D8A005D03F503D5E40503E5A91
:1042680000D0D89040323F32412EF0D700D0425093
:10427800D8B405D03D6C3E1ED8B03E2A00D03DC013
:104288003DF03EC03EF000D0120020454345333398
:1042980030314C2053702732312046696E616C00F2
:1042A800000000000000000000A262E22202C2E05A
:1042B800A8906898B030187A10385A424A5230306C
:1042C8003A30303A30300030302F30302F30300034
:1042D80030303A30303A30300030312F30312F30F2
:1042E800300030303A30303A30300030303A303008
:1042F8003A303000302E303056002250231024102F
:104308002510D8B429D0010E266E07D0D8902236B1
:10431800233624362536262A00D025BE02D0F6D7E5
:1043280000D022501E5C23501F582450205825507E
:104338002158D8A009D022501E5E23501F5A24505D
:10434800205A2550215A00D0D890253224322332C1
:104358002232262EE6D700D01EC01EF01FC01FF046
:1043680020C020F021C021F01200136E000EAC6EA8
:10437800000EAB6E13A002D0AC8800D013A203D0FD
:10438800AC8CAB8C00D013A402D0AC8E00D013A69A
:1043980002D0AB8802D0AB8A00D013B8AC849E9808
:1043A80013AA02D0AB8600D013AC02D09D8A01D0EC
:1043B8009D9A9E9A13AE02D09D8801D09D9811C0F7
:1043C800AFFF1250B06EAC8AAB8E949C948EACB892
:1043D800ACBE02D0948C00D01200680E156E000E90
:1043E800146EDFEC27F0155015240BEC25F0145053
:1043F8000BEC25F07FEC27F0D88015340BEC25F07A
:10440800010E68EC24F06D6E010E68EC24F06B6E02
:10441800010E68EC24F06A6E010E68EC24F00001CD
:10442800AA6F010E68EC24F0676E010E68EC24F0A8
:104438006C6E000E68EC24F00001B46FD6EC27F027
:10444800120038EC26F011C043F012C044F043C00B
:1044580011F044C012F0000E146E050E136E24EC19
:1044680026F011C019F012C01AF02AEC25F019C074
:104478002EF01AC02FF01BC030F0000E316E800EE7
:10448800326E440E336E3AEC1AF02EC040F02FC054
:1044980041F030C042F040C03DF041C03EF042C063
:1044A8003FF000D0120000EE80F0350EEE6AE8060C
:1044B800FDE100EE60F0100EEE6AE806FDE1920EF6
:1044C800F66E420EF76E000EF86E01EE00F010EE7A
:1044D80070F00900F5CFEEFFE550E150FAE1200E4B
:1044E800F66E4C0EF76E000EF86E00EEB5F010EE9C
:1044F80028F00900F5CFEEFFE550E150FAE1000E93
:10450800F86E00010CEF0EF021D00001AC2B180E54
:104518000001AC19D8A426D0000E0001AC6F22D03F
:104528000001AD2B3C0E0001AD19D8A41BD0000E24
:104538000001AD6F17D00001AE2B3C0E0001AE1983
:10454800D8A410D0000E0001AE6F0CD00001A3510A
:10455800000AD8B4DAD7010AD8B4E2D7030AD8B423
:10456800EAD700D052EC19F0120021D00001AC516A
:10457800D8A404D0170E0001AC6F25D00001AC07F9
:1045880022D00001AD51D8A404D03B0E0001AD6F7C
:104598001AD00001AD0717D00001AE51D8A404D03D
:1045A8003B0E0001AE6F0FD00001AE070CD000012A
:1045B800A351000AD8B4DAD7010AD8B4E2D7030A5B
:1045C800D8B4EAD700D052EC19F012008E0E216E42
:1045D80007D0D8901C321B321A321932212A00D047
:1045E800000E19141D6E000E1A141E6E000E1B14F8
:1045F8001F6EFF0E1C14206E1D501E101F10201061
:10460800D8A4E7D719C011F01AC012F01BC013F0D4
:1046180021C014F0000E156E5EEC1CF011C019F0EC
:1046280012C01AF013C01BF000D01200A8EC27F03B
:1046380020EC28F0700ED36E0E0EC16E110E926E25
:10464800270E936E010E946E000E956E000E966EF8
:10465800000E846E000E00019B6FF19E000EB26E7C
:10466800030EB16EA00E116E860E126E010E136E41
:10467800000E146E3AEC28F001EC27F0E1EC26F07D
:104688002EEC28F04B0E0001B56F1200496E49C0A0
:1046980017F0186A000E1A6E0A0E196ED0EC1EF08A
:1046A80017C045F018C046F0453A463AF00E46168F
:1046B80045500F0B4612F00E451649C03DF03E6AB4
:1046C800000E406E0A0E3F6E08EC21F03D50452466
:1046D800476E3E504620486E47C043F048C044F0FD
:1046E80000D01200176E2A0E11EC28F0000E09EC0B
:1046F80028F017500001A92509EC28F0000E09EC54
:1047080028F015500001A92509EC28F02B0E11EC12
:1047180028F0000E09EC28F014500001AB2509EC34
:1047280028F0000E09EC28F016500001AB2509EC22
:1047380028F02C0E11EC28F01200680E1F6E0E0ED9
:104748001B6E0F0E1C6E1BC014F01F5082EC25F060
:104758001D6E1D5001091D6E1BC013F01DC014F005
:104768001F5081EC26F01CC014F01F5082EC25F07D
:104778001E6E1E50FE0B1E6E1CC013F01EC014F0E1
:104788001F5081EC26F0C1EC1CF01200680E1F6E61
:104798000E0E1B6E0F0E1C6E1BC014F01F5082EC09
:1047A80025F01D6E1D50FE0B1D6E1BC013F01DC0A5
:1047B80014F01F5081EC26F01CC014F01F5082EC3E
:1047C80025F01E6E1E50FE0B1E6E1CC013F01EC080
:1047D80014F01F5081EC26F0C1EC1CF0120017C039
:1047E80011F018C012F0000E146E7D0E136E24EC3A
:1047F80026F011C01BF012C01CF01BC019F01CC021
:104808001AF0191E1A1E194A1A2AFF0E19241B6EAD
:10481800FF0E1A201C6E030ED56E1BC0D6FF1C504F
:10482800D76EF294D58E00D0F2A4FED7D59E120092
:10483800680E156E070E146EDFEC27F01550152460
:104848000BEC25F014500BEC25F07FEC27F0D8800A
:1048580015340BEC25F0010E68EC24F0666E010EA1
:1048680068EC24F0656E010E68EC24F0646E000EAE
:1048780068EC24F00001A76FD6EC27F012002B6E2D
:104888002BC02CF02D6A0ED023C018F025C019F0CB
:1048980026C01AF027C01BF02C5040EC20F02C4A00
:1048A8002D2A00D024502BC028F0296A2826000E73
:1048B800292228502C5C2D50800A2A6E2950800A03
:1048C8002A58D8A0E1D71200116E56EC28F0000E35
:1048D800126E070E126401D00FD034EC28F083A2B8
:1048E80003D0D880133604D013501324136E00D08D
:1048F80052EC28F0122AEDD71150D8B403D0E8ECC6
:1049080027F003D03FEC28F000D0135000D012005D
:104918005C505D105E10D8B407D0000E5C1A000E13
:104928005D1A800E5E1A00D059C04DF05AC04EF084
:104938005BC04FF05CC050F05DC051F05EC052F0FB
:104948000EEC0FF04DC059F04EC05AF04FC05BF05E
:1049580000D01200B2CF17F0186A000E1A6E020EBD
:10496800196ED0EC1EF017C021F018C022F0000E0E
:10497800B26E21C011F022C012F0000E146E3C0E6F
:10498800136E24EC26F011C01FF012C020F000D0E6
:1049980012002A0E11EC28F0000E09EC28F0000E87
:1049A80009EC28F0000E09EC28F07F0E09EC28F03D
:1049B8002B0E11EC28F0000E09EC28F0000E09EC83
:1049C80028F0000E09EC28F09F0E09EC28F01200E0
:1049D80011C015F012C016F003D0154A162A00D0DF
:1049E80015C0D9FF16C0DAFFDF50D8A4F6D711C01A
:1049F80013F012C014F0131E141E134A142A155073
:104A08001324116E16501420126E00D01200116E6D
:104A1800000E126E070E126401D011D011AE03D031
:104A280056EC28F003D044EC28F000D034EC28F001
:104A380052EC28F011501124116E122AEBD756ECC3
:104A480028F034EC28F052EC28F01200000E1C6E0E
:104A58001AAE07D0196C1A1ED8B01A2A010E1C6E8D
:104A680000D019C011F01AC012F0136A8E0E146E1D
:104A78001CC015F05EEC1CF011C019F012C01AF041
:104A880013C01BF000D01200480E186EAA0E166E46
:104A9800DFEC27F0185018240BEC25F016500BEC1F
:104AA80025F07FEC27F0D88018340BEC25F0000EA9
:104AB80068EC24F0176ED6EC27F017C014F0156ACE
:104AC80000D012008BC011F08CC012F0B5C013F0EA
:104AD800146A9BEC25F01150686E6850DDEC1DF0EF
:104AE80000019B05D8A402D0808A02D0809A00D009
:104AF8006850D8A402D0809A00D01200166EDFEC5D
:104B080027F0165016240BEC25F014500BEC25F06A
:104B18007FEC27F0D88016340BEC25F0000E68ECFB
:104B280024F0156ED6EC27F0155000D01200115065
:104B3800135C1450800A156E1250800A1558D8B0AC
:104B480002D0000E06D0115000081324156ED8901C
:104B58001534686E00D068C011F0126A00D01200D7
:104B680011C015F012C016F005D0154A162A134ABE
:104B7800142A00D013C0F6FF14C0F7FF15C0D9FFE0
:104B880016C0DAFF0800F5CFDFFFDF50D8A4EDD755
:104B980012001B6E800E1B6013D09F0E186401D08C
:104BA8000FD018C014F01B28156E1828166E1B504D
:104BB80076EC23F01A5009EC28F0195009EC28F08B
:104BC800120083888396800EC76E300EC66ECCECBA
:104BD80015F0CDEC24F063EC18F0360E11EC28F04B
:104BE800C00E09EC28F0010E0001A66F1200156E28
:104BF80015C011F00F0E111615C012F0123A0F0E53
:104C0800121612500A0D1150F324136E000EF420E0
:104C1800146E135000D012004BFF01303735460098
:104C2800303030300030373546004F46460030309F
:104C380030004F4646002B3235002B373700300006
:104C480011501302F3CF15F0F4CF16F011501402DF
:104C5800F350162612501302F350162615C011F001
:104C680016C012F000D01200C28200D0C2B2FED725
:104C7800C450146E136AC3501324156E000E14200A
:104C8800166E15C011F016C012F000D012001C6E7E
:104C98001C50116E126A136A8E0E146E000E156E79
:104CA8005EEC1CF011C019F012C01AF013C01BF012
:104CB80000D01200115012101310D8B406D0000EF4
:104CC800111A000E121A800E131A11C011F012C018
:104CD80012F013C013F01200136E000E126E3A0E8B
:104CE800136006D02F0E136403D0010E126E00D08D
:104CF80012C011F0113000D01200156EDFEC27F051
:104D0800155015240BEC25F013500BEC25F014501E
:104D18000BEC25F0D6EC27F012000001A551D8A421
:104D280004D0050E0001A56F03D00001A50700D02F
:104D38000001A551CDEC10F012000001A52B060EC4
:104D48000001A519D8A404D0000E0001A56F00D059
:104D58000001A551F0EC0FF012000001A351D8A4F6
:104D680004D0020E0001A36F03D00001A30700D0F6
:104D78000001A351CDEC10F012000001A32B030E8B
:104D88000001A319D8A404D0000E0001A36F00D01D
:104D98000001A351F0EC0FF01200000E126E000E8D
:104DA800116E112805E11228D8B406D001D004D01C
:104DB800114A122AF6D7FCD71200F292F090F0921C
:104DC800F288F088F19CF198000ECF6E000ECE6E3E
:104DD8009E909D80F28CF28E1200156EDFEC27F00B
:104DE800155015240BEC25F013500BEC25F014503E
:104DF8000BEC25F0D6EC27F01200480E166EAC0E20
:104E0800136E020E146E1650F1EC26F0EE0E136EB1
:104E1800165038EC27F01200000E186E800E196E2E
:104E2800A00E1A6E24C01BF025C01CF0000E1CEC4E
:104E38001BF012000001AF2B6E0E0001AF6504D00D
:104E48006E0E0001AF6F00D085EC1EF0120000015D
:104E5800AF07320E0001AF6104D0320E0001AF6F10
:104E680000D085EC1EF01200146EDFEC27F0145011
:104E780014240BEC25F013500BEC25F0D6EC27F09E
:104E88001200C7EC20F01CEC24F0F1EC21F02AEC25
:104E98000BF0000E00019E6F1200C4EC27F0D1EC5D
:104EA80026F04EEC28F0D1EC26F06850DDEC1DF031
:104EB8001200CDEC27F0D1EC26F04EEC28F0D1EC26
:104EC80026F06850DDEC1DF01200116E080E111866
:104ED800D8A403D0000E116E00D011C084FF1200B8
:104EE80000019B51D8A402D0010E01D0000E000190
:104EF8009B6F00D0120052EC28F056EC28F034ECEE
:104F080028F044EC28F052EC28F01200AFC0B5F0BD
:104F1800F1EC21F02AEC0BF0000E00019F6F12005B
:104F280038EC1EF0F1EC21F02AEC0BF0000E000139
:104F3800A06F1200126E9E96C9CF11F012C0C9FF61
:104F480000D0C7A0FED71200000E126E190E116E07
:104F58003C0EB9EC21F0700ED36E12007C0ECB6EB5
:104F6800050ECA6E3E0EBB6E1C0EBA6E1200839AF8
:104F7800000E186E640E176EF3EC23F0838A12008D
:104F8800F90ECB6E050ECA6E7C0EBB6E3C0EBA6E69
:104F98001200F90ECB6E070ECA6E7C0EBB6E3C0E6D
:104FA800BA6E120052EC28F044EC28F034EC28F0E9
:104FB80056EC28F0120056EC28F034EC28F044ECBB
:104FC80028F052EC28F0120044EC28F034EC28F0D9
:104FD80052EC28F056EC28F01200F1EC21F02AEC03
:104FE8000BF0000E00019F6F1200F1EC21F02AEC8B
:104FF8000BF0000E0001A06F1200F1EC21F02AEC7A
:105008000BF0000E00019E6F1200136E83988386CA
:1050180013509EEC27F083881200136E83988396B2
:1050280013509EEC27F083881200116E00D0ACA2BA
:10503800FED711C0ADFF1200010EC26E0E0EC16E7A
:10504800A90EC06E1200000E0001A26FF19CCD9057
:105058009E901200000E00019B6F809A809C1200A7
:105068009580060EE82EFED700D0120034EC28F00A
:1050780056EC28F0120034EC28F052EC28F012001C
:105088008392959200D000D01200F092010E000198
:105098009D6F1200000EBA6E819612008390959053
:0C50A80000D01200958200D000D0120051
:10FC420000000000000000005F0000000700070045
:10FC5200147F147F14242A7F2A1223130864623625
:10FC6200495620500008070300001C2241000041B1
:10FC7200221C002A1C7F1C2A08083E0808008070EB
:10FC8200300008080808080000606000201008041E
:10FC9200023E5149453E00427F4000724949494671
:10FCA2002141494D331814127F1027454545393CEF
:10FCB2004A494931412111090736494949364649DC
:10FCC20049291E00001400000040340000000814FE
:10FCD2002241141414141400412214080201590977
:10FCE200063E415D594E7C1211127C7F49494936CC
:10FCF2003E414141227F4141413E7F494949417F45
:10FD0200090909013E414151737F0808087F0041FA
:10FD12007F41002040413F017F081422417F404043
:10FD220040407F021C027F7F0408107F3E41414118
:10FD32003E7F090909063E4151215E7F0919294684
:10FD4200264949493203017F01033F4040403F1F9A
:10FD52002040201F3F4038403F63140814630304CF
:10FD62007804036159494D43007F4141410204082F
:10FD72001020004141417F04020102044040404002
:10FD820040000307080020545478407F2844443838
:10FD92003844444428384444287F38545454180082
:10FDA200087E090218A4A49C787F08040478004401
:10FDB2007D40002040403D007F1028440000417FEC
:10FDC20040007C047804787C080404783844444475
:10FDD20038FC1824241818242418FC7C080404086D
:10FDE200485454542404043F44243C4040207C1C86
:10FDF2002040201C3C4030403C44281028444C9079
:10FE020090907C4464544C440008364100000077D2
:10FE12000000004136080002010204020100000055
:10FE22000A00000064000000E80300001027000040
:10FE3200A086010040420F008096980000E1F5057F
:10FE420000CA9A3B00803FCDCC3DD7233C12833A77
:10FE5200B7D138C62737388635C0D633CC2B327067
:10FE62008930E7DB2EE53C1E42A20D00803F0020D8
:10FE72004100C842007A44401C4650C3472474499A
:10FE820097184BBCBE4C6B6E4E03155079AD60F3A8
:10FE92004971010000001000000000010000001084
:10FEA200000000000100000010000000000100003E
:10FEB2000010253032783A253032783A25303278BF
:10FEC20020253032782F253032782F2530327800B5
:10FED200616C61726D203D202564206D61746368E0
:10FEE200203D202564200043616E6E6F7420666998
:10FEF2006E6420627574746F6E200D0A004543456E
:10FF0200333330314C20537032312046696E616C8C
:10FF120000002054656D70203D2025642043203D63
:10FF220020256420462000454345333330314C20A0
:10FF3200537032312046696E616C0052504D203D43
:10FF420020256420206463203D2025642000303178
:10FF5200323334353637383961626364656600207E
:10FF6200205365742046616E2054656D700054659F
:10FF72006D70657261747572653A0046414E205328
:10FF820065742054656D700054696D652053657405
:10FF9200757000002046616E205365747570000014
:10FFA200566F6C74203D2025660D0A0025783A258F
:10FFB200783A25780D0A00416C726D20536574758C
:10FFC2007000416C61726D2054696D6500416C6115
:10FFD200726D2053570046616E205357004461747E
:10FFE2006500566F6C74004F4E20004F464600521B
:0EFFF200504D00432F00444300524D000000CC
:020000040030CA
:08000000FF08191EFF8281FFB9
:00000001FF
